{"contracts/010ForWhile.sol":{"ForWhile":{"abi":[{"inputs":[],"name":"addtotal","outputs":[{"internalType":"uint256","name":"","type":"uint256"}],"stateMutability":"pure","type":"function"},{"inputs":[],"name":"loop","outputs":[],"stateMutability":"pure","type":"function"}],"evm":{"bytecode":{"linkReferences":{},"object":"6080604052348015600f57600080fd5b506101f98061001f6000396000f3fe608060405234801561001057600080fd5b50600436106100365760003560e01c80636c50fec71461003b578063a92100cb14610059575b600080fd5b610043610063565b60405161005091906100fd565b60405180910390f35b610061610095565b005b60008060005b603281101561008d57808261007e9190610147565b91508080600101915050610069565b508091505090565b60005b600a8110156100c15760038103156100b45760058103156100c1575b8080600101915050610098565b5060005b600a8110156100e15780806100d99061017b565b9150506100c5565b50565b6000819050919050565b6100f7816100e4565b82525050565b600060208201905061011260008301846100ee565b92915050565b7f4e487b7100000000000000000000000000000000000000000000000000000000600052601160045260246000fd5b6000610152826100e4565b915061015d836100e4565b925082820190508082111561017557610174610118565b5b92915050565b6000610186826100e4565b91507fffffffffffffffffffffffffffffffffffffffffffffffffffffffffffffffff82036101b8576101b7610118565b5b60018201905091905056fea26469706673582212205e71749a88ab5cf50bcbc6cd16040fb75a78589074e6ee921d738179ca47f81964736f6c634300081c0033","opcodes":"PUSH1 0x80 PUSH1 0x40 MSTORE CALLVALUE DUP1 ISZERO PUSH1 0xF JUMPI PUSH1 0x0 DUP1 REVERT JUMPDEST POP PUSH2 0x1F9 DUP1 PUSH2 0x1F PUSH1 0x0 CODECOPY PUSH1 0x0 RETURN INVALID PUSH1 0x80 PUSH1 0x40 MSTORE CALLVALUE DUP1 ISZERO PUSH2 0x10 JUMPI PUSH1 0x0 DUP1 REVERT JUMPDEST POP PUSH1 0x4 CALLDATASIZE LT PUSH2 0x36 JUMPI PUSH1 0x0 CALLDATALOAD PUSH1 0xE0 SHR DUP1 PUSH4 0x6C50FEC7 EQ PUSH2 0x3B JUMPI DUP1 PUSH4 0xA92100CB EQ PUSH2 0x59 JUMPI JUMPDEST PUSH1 0x0 DUP1 REVERT JUMPDEST PUSH2 0x43 PUSH2 0x63 JUMP JUMPDEST PUSH1 0x40 MLOAD PUSH2 0x50 SWAP2 SWAP1 PUSH2 0xFD JUMP JUMPDEST PUSH1 0x40 MLOAD DUP1 SWAP2 SUB SWAP1 RETURN JUMPDEST PUSH2 0x61 PUSH2 0x95 JUMP JUMPDEST STOP JUMPDEST PUSH1 0x0 DUP1 PUSH1 0x0 JUMPDEST PUSH1 0x32 DUP2 LT ISZERO PUSH2 0x8D JUMPI DUP1 DUP3 PUSH2 0x7E SWAP2 SWAP1 PUSH2 0x147 JUMP JUMPDEST SWAP2 POP DUP1 DUP1 PUSH1 0x1 ADD SWAP2 POP POP PUSH2 0x69 JUMP JUMPDEST POP DUP1 SWAP2 POP POP SWAP1 JUMP JUMPDEST PUSH1 0x0 JUMPDEST PUSH1 0xA DUP2 LT ISZERO PUSH2 0xC1 JUMPI PUSH1 0x3 DUP2 SUB ISZERO PUSH2 0xB4 JUMPI PUSH1 0x5 DUP2 SUB ISZERO PUSH2 0xC1 JUMPI JUMPDEST DUP1 DUP1 PUSH1 0x1 ADD SWAP2 POP POP PUSH2 0x98 JUMP JUMPDEST POP PUSH1 0x0 JUMPDEST PUSH1 0xA DUP2 LT ISZERO PUSH2 0xE1 JUMPI DUP1 DUP1 PUSH2 0xD9 SWAP1 PUSH2 0x17B JUMP JUMPDEST SWAP2 POP POP PUSH2 0xC5 JUMP JUMPDEST POP JUMP JUMPDEST PUSH1 0x0 DUP2 SWAP1 POP SWAP2 SWAP1 POP JUMP JUMPDEST PUSH2 0xF7 DUP2 PUSH2 0xE4 JUMP JUMPDEST DUP3 MSTORE POP POP JUMP JUMPDEST PUSH1 0x0 PUSH1 0x20 DUP3 ADD SWAP1 POP PUSH2 0x112 PUSH1 0x0 DUP4 ADD DUP5 PUSH2 0xEE JUMP JUMPDEST SWAP3 SWAP2 POP POP JUMP JUMPDEST PUSH32 0x4E487B7100000000000000000000000000000000000000000000000000000000 PUSH1 0x0 MSTORE PUSH1 0x11 PUSH1 0x4 MSTORE PUSH1 0x24 PUSH1 0x0 REVERT JUMPDEST PUSH1 0x0 PUSH2 0x152 DUP3 PUSH2 0xE4 JUMP JUMPDEST SWAP2 POP PUSH2 0x15D DUP4 PUSH2 0xE4 JUMP JUMPDEST SWAP3 POP DUP3 DUP3 ADD SWAP1 POP DUP1 DUP3 GT ISZERO PUSH2 0x175 JUMPI PUSH2 0x174 PUSH2 0x118 JUMP JUMPDEST JUMPDEST SWAP3 SWAP2 POP POP JUMP JUMPDEST PUSH1 0x0 PUSH2 0x186 DUP3 PUSH2 0xE4 JUMP JUMPDEST SWAP2 POP PUSH32 0xFFFFFFFFFFFFFFFFFFFFFFFFFFFFFFFFFFFFFFFFFFFFFFFFFFFFFFFFFFFFFFFF DUP3 SUB PUSH2 0x1B8 JUMPI PUSH2 0x1B7 PUSH2 0x118 JUMP JUMPDEST JUMPDEST PUSH1 0x1 DUP3 ADD SWAP1 POP SWAP2 SWAP1 POP JUMP INVALID LOG2 PUSH5 0x6970667358 0x22 SLT KECCAK256 MCOPY PUSH18 0x749A88AB5CF50BCBC6CD16040FB75A785890 PUSH21 0xE6EE921D738179CA47F81964736F6C634300081C00 CALLER "},"methodIdentifiers":{"addtotal()":"6c50fec7","loop()":"a92100cb"}}}}}