{
  "_format": "hh-sol-artifact-1",
  "contractName": "Immutable",
  "sourceName": "contracts/006Immutable.sol",
  "abi": [
    {
      "inputs": [],
      "stateMutability": "nonpayable",
      "type": "constructor"
    },
    {
      "inputs": [],
      "name": "My_ADDRESS",
      "outputs": [
        {
          "internalType": "address",
          "name": "",
          "type": "address"
        }
      ],
      "stateMutability": "view",
      "type": "function"
    },
    {
      "inputs": [],
      "name": "Numb",
      "outputs": [
        {
          "internalType": "uint256",
          "name": "",
          "type": "uint256"
        }
      ],
      "stateMutability": "view",
      "type": "function"
    }
  ],
  "bytecode": "0x60c0604052348015600f57600080fd5b503373ffffffffffffffffffffffffffffffffffffffff1660808173ffffffffffffffffffffffffffffffffffffffff168152505060c860a0818152505060805160a0516101856100706000396000607901526000609d01526101856000f3fe608060405234801561001057600080fd5b50600436106100365760003560e01c806330c25e841461003b578063d3d746ee14610059575b600080fd5b610043610077565b60405161005091906100d8565b60405180910390f35b61006161009b565b60405161006e9190610134565b60405180910390f35b7f000000000000000000000000000000000000000000000000000000000000000081565b7f000000000000000000000000000000000000000000000000000000000000000081565b6000819050919050565b6100d2816100bf565b82525050565b60006020820190506100ed60008301846100c9565b92915050565b600073ffffffffffffffffffffffffffffffffffffffff82169050919050565b600061011e826100f3565b9050919050565b61012e81610113565b82525050565b60006020820190506101496000830184610125565b9291505056fea26469706673582212206e196c7c840732efb6d4eaacb326e1c5ad9255c570ca99583c07585ded957d9964736f6c634300081c0033",
  "linkReferences": {},
  "deployedLinkReferences": {}
}