{
  "_format": "hh-sol-artifact-1",
  "contractName": "Primitives",
  "sourceName": "contracts/003Primitive.sol",
  "abi": [
    {
      "inputs": [],
      "name": "a",
      "outputs": [
        {
          "internalType": "bytes1",
          "name": "",
          "type": "bytes1"
        }
      ],
      "stateMutability": "view",
      "type": "function"
    },
    {
      "inputs": [],
      "name": "addr",
      "outputs": [
        {
          "internalType": "address",
          "name": "",
          "type": "address"
        }
      ],
      "stateMutability": "view",
      "type": "function"
    },
    {
      "inputs": [],
      "name": "boo",
      "outputs": [
        {
          "internalType": "bool",
          "name": "",
          "type": "bool"
        }
      ],
      "stateMutability": "view",
      "type": "function"
    },
    {
      "inputs": [],
      "name": "intmax",
      "outputs": [
        {
          "internalType": "int256",
          "name": "",
          "type": "int256"
        }
      ],
      "stateMutability": "view",
      "type": "function"
    },
    {
      "inputs": [],
      "name": "numa",
      "outputs": [
        {
          "internalType": "uint8",
          "name": "",
          "type": "uint8"
        }
      ],
      "stateMutability": "view",
      "type": "function"
    },
    {
      "inputs": [],
      "name": "numb",
      "outputs": [
        {
          "internalType": "uint256",
          "name": "",
          "type": "uint256"
        }
      ],
      "stateMutability": "view",
      "type": "function"
    },
    {
      "inputs": [],
      "name": "numi",
      "outputs": [
        {
          "internalType": "int8",
          "name": "",
          "type": "int8"
        }
      ],
      "stateMutability": "view",
      "type": "function"
    },
    {
      "inputs": [],
      "name": "numj",
      "outputs": [
        {
          "internalType": "int256",
          "name": "",
          "type": "int256"
        }
      ],
      "stateMutability": "view",
      "type": "function"
    },
    {
      "inputs": [],
      "name": "x",
      "outputs": [
        {
          "internalType": "uint256",
          "name": "",
          "type": "uint256"
        }
      ],
      "stateMutability": "view",
      "type": "function"
    }
  ],
  "bytecode": "0x60806040526003600060016101000a81548160ff021916908360ff1602179055506401510a55206001557fffffffffffffffffffffffffffffffffffffffffffffffffffffffffffffff80600260006101000a81548160ff021916908360000b60ff1602179055507ffffffffffffffffffffffffffffffffffffffffffffffffffffffddbca293b97600355607b60f81b600660006101000a81548160ff021916908360f81c02179055507f7fffffffffffffffffffffffffffffffffffffffffffffffffffffffffffffff60075534801560d957600080fd5b50610422806100e96000396000f3fe608060405234801561001057600080fd5b50600436106100935760003560e01c80635992c23e116100665780635992c23e14610110578063767800de1461012e578063797bdd3a1461014c578063a792b6ec1461016a578063dd9ab6cc1461018857610093565b80630c55699c146100985780630dbe671f146100b6578063220049e1146100d45780634b3df200146100f2575b600080fd5b6100a06101a6565b6040516100ad9190610247565b60405180910390f35b6100be6101ac565b6040516100cb919061029d565b60405180910390f35b6100dc6101bf565b6040516100e991906102d1565b60405180910390f35b6100fa6101c5565b6040516101079190610307565b60405180910390f35b6101186101d6565b604051610125919061033e565b60405180910390f35b6101366101e9565b604051610143919061039a565b60405180910390f35b61015461020f565b60405161016191906103d1565b60405180910390f35b610172610222565b60405161017f9190610247565b60405180910390f35b610190610228565b60405161019d91906102d1565b60405180910390f35b60055481565b600660009054906101000a900460f81b81565b60075481565b60008054906101000a900460ff1681565b600060019054906101000a900460ff1681565b600460009054906101000a900473ffffffffffffffffffffffffffffffffffffffff1681565b600260009054906101000a900460000b81565b60015481565b60035481565b6000819050919050565b6102418161022e565b82525050565b600060208201905061025c6000830184610238565b92915050565b60007fff0000000000000000000000000000000000000000000000000000000000000082169050919050565b61029781610262565b82525050565b60006020820190506102b2600083018461028e565b92915050565b6000819050919050565b6102cb816102b8565b82525050565b60006020820190506102e660008301846102c2565b92915050565b60008115159050919050565b610301816102ec565b82525050565b600060208201905061031c60008301846102f8565b92915050565b600060ff82169050919050565b61033881610322565b82525050565b6000602082019050610353600083018461032f565b92915050565b600073ffffffffffffffffffffffffffffffffffffffff82169050919050565b600061038482610359565b9050919050565b61039481610379565b82525050565b60006020820190506103af600083018461038b565b92915050565b60008160000b9050919050565b6103cb816103b5565b82525050565b60006020820190506103e660008301846103c2565b9291505056fea26469706673582212201f6501ed50376d0122db703c1593b831be15d81a224f140f074d63b719acbf4b64736f6c634300081c0033",
  "linkReferences": {},
  "deployedLinkReferences": {}
}