{
  "_format": "hh-sol-artifact-1",
  "contractName": "ForWhile",
  "sourceName": "contracts/010ForWhile.sol",
  "abi": [
    {
      "inputs": [],
      "name": "addtotal",
      "outputs": [
        {
          "internalType": "uint256",
          "name": "",
          "type": "uint256"
        }
      ],
      "stateMutability": "pure",
      "type": "function"
    },
    {
      "inputs": [],
      "name": "loop",
      "outputs": [],
      "stateMutability": "pure",
      "type": "function"
    }
  ],
  "bytecode": "0x6080604052348015600f57600080fd5b506101f98061001f6000396000f3fe608060405234801561001057600080fd5b50600436106100365760003560e01c80636c50fec71461003b578063a92100cb14610059575b600080fd5b610043610063565b60405161005091906100fd565b60405180910390f35b610061610095565b005b60008060005b603281101561008d57808261007e9190610147565b91508080600101915050610069565b508091505090565b60005b600a8110156100c15760038103156100b45760058103156100c1575b8080600101915050610098565b5060005b600a8110156100e15780806100d99061017b565b9150506100c5565b50565b6000819050919050565b6100f7816100e4565b82525050565b600060208201905061011260008301846100ee565b92915050565b7f4e487b7100000000000000000000000000000000000000000000000000000000600052601160045260246000fd5b6000610152826100e4565b915061015d836100e4565b925082820190508082111561017557610174610118565b5b92915050565b6000610186826100e4565b91507fffffffffffffffffffffffffffffffffffffffffffffffffffffffffffffffff82036101b8576101b7610118565b5b60018201905091905056fea26469706673582212205e71749a88ab5cf50bcbc6cd16040fb75a78589074e6ee921d738179ca47f81964736f6c634300081c0033",
  "linkReferences": {},
  "deployedLinkReferences": {}
}