{
  "_format": "hh-sol-artifact-1",
  "contractName": "Array",
  "sourceName": "contracts/013Array.sol",
  "abi": [
    {
      "inputs": [
        {
          "internalType": "uint256",
          "name": "",
          "type": "uint256"
        }
      ],
      "name": "arr",
      "outputs": [
        {
          "internalType": "uint256",
          "name": "",
          "type": "uint256"
        }
      ],
      "stateMutability": "view",
      "type": "function"
    },
    {
      "inputs": [
        {
          "internalType": "uint256",
          "name": "",
          "type": "uint256"
        }
      ],
      "name": "arr1",
      "outputs": [
        {
          "internalType": "uint256",
          "name": "",
          "type": "uint256"
        }
      ],
      "stateMutability": "view",
      "type": "function"
    },
    {
      "inputs": [
        {
          "internalType": "uint256",
          "name": "_index",
          "type": "uint256"
        }
      ],
      "name": "deleteArr",
      "outputs": [],
      "stateMutability": "nonpayable",
      "type": "function"
    },
    {
      "inputs": [],
      "name": "examples",
      "outputs": [],
      "stateMutability": "pure",
      "type": "function"
    },
    {
      "inputs": [
        {
          "internalType": "uint256",
          "name": "",
          "type": "uint256"
        }
      ],
      "name": "fixArray",
      "outputs": [
        {
          "internalType": "uint256",
          "name": "",
          "type": "uint256"
        }
      ],
      "stateMutability": "view",
      "type": "function"
    },
    {
      "inputs": [
        {
          "internalType": "uint256",
          "name": "_index",
          "type": "uint256"
        }
      ],
      "name": "get",
      "outputs": [
        {
          "internalType": "uint256",
          "name": "",
          "type": "uint256"
        }
      ],
      "stateMutability": "view",
      "type": "function"
    },
    {
      "inputs": [],
      "name": "getArray",
      "outputs": [
        {
          "internalType": "uint256[]",
          "name": "",
          "type": "uint256[]"
        }
      ],
      "stateMutability": "view",
      "type": "function"
    },
    {
      "inputs": [],
      "name": "getlength",
      "outputs": [
        {
          "internalType": "uint256",
          "name": "",
          "type": "uint256"
        }
      ],
      "stateMutability": "view",
      "type": "function"
    },
    {
      "inputs": [],
      "name": "popTest",
      "outputs": [],
      "stateMutability": "nonpayable",
      "type": "function"
    },
    {
      "inputs": [
        {
          "internalType": "uint256",
          "name": "_i",
          "type": "uint256"
        }
      ],
      "name": "pushTest",
      "outputs": [],
      "stateMutability": "nonpayable",
      "type": "function"
    }
  ],
  "bytecode": "0x60806040526040518060a00160405280600160ff168152602001600260ff168152602001600360ff168152602001600460ff168152602001600560ff168152506001906005604d929190605e565b50348015605957600080fd5b5060c6565b828054828255906000526020600020908101928215609c579160200282015b82811115609b578251829060ff16905591602001919060010190607d565b5b50905060a7919060ab565b5090565b5b8082111560c257600081600090555060010160ac565b5090565b610686806100d56000396000f3fe608060405234801561001057600080fd5b506004361061009e5760003560e01c80639507d39a116100665780639507d39a14610159578063a16d359814610189578063be9a9a15146101a7578063d504ea1d146101b1578063fadc31c5146101cf5761009e565b806316cc7d3a146100a3578063335d00c2146100bf5780636987b1fb146100c957806371e5ee5f146100f95780637ea4f2da14610129575b600080fd5b6100bd60048036038101906100b8919061048c565b6101eb565b005b6100c7610217565b005b6100e360048036038101906100de919061048c565b610312565b6040516100f091906104c8565b60405180910390f35b610113600480360381019061010e919061048c565b610336565b60405161012091906104c8565b60405180910390f35b610143600480360381019061013e919061048c565b61035a565b60405161015091906104c8565b60405180910390f35b610173600480360381019061016e919061048c565b610375565b60405161018091906104c8565b60405180910390f35b61019161039d565b60405161019e91906104c8565b60405180910390f35b6101af6103aa565b005b6101b96103d4565b6040516101c691906105a1565b60405180910390f35b6101e960048036038101906101e4919061048c565b61042c565b005b600081908060018154018082558091505060019003906000526020600020016000909190919091505550565b6000600567ffffffffffffffff811115610234576102336105c3565b5b6040519080825280602002602001820160405280156102625781602001602082028036833780820191505090505b509050600a8160008151811061027b5761027a6105f2565b5b60200260200101818152505060148160018151811061029d5761029c6105f2565b5b602002602001018181525050601e816002815181106102bf576102be6105f2565b5b6020026020010181815250506028816003815181106102e1576102e06105f2565b5b602002602001018181525050603281600481518110610303576103026105f2565b5b60200260200101818152505050565b6001818154811061032257600080fd5b906000526020600020016000915090505481565b6000818154811061034657600080fd5b906000526020600020016000915090505481565b6002816005811061036a57600080fd5b016000915090505481565b60006001828154811061038b5761038a6105f2565b5b90600052602060002001549050919050565b6000600180549050905090565b60018054806103bc576103bb610621565b5b60019003818190600052602060002001600090559055565b6060600180548060200260200160405190810160405280929190818152602001828054801561042257602002820191906000526020600020905b81548152602001906001019080831161040e575b5050505050905090565b600181815481106104405761043f6105f2565b5b906000526020600020016000905550565b600080fd5b6000819050919050565b61046981610456565b811461047457600080fd5b50565b60008135905061048681610460565b92915050565b6000602082840312156104a2576104a1610451565b5b60006104b084828501610477565b91505092915050565b6104c281610456565b82525050565b60006020820190506104dd60008301846104b9565b92915050565b600081519050919050565b600082825260208201905092915050565b6000819050602082019050919050565b61051881610456565b82525050565b600061052a838361050f565b60208301905092915050565b6000602082019050919050565b600061054e826104e3565b61055881856104ee565b9350610563836104ff565b8060005b8381101561059457815161057b888261051e565b975061058683610536565b925050600181019050610567565b5085935050505092915050565b600060208201905081810360008301526105bb8184610543565b905092915050565b7f4e487b7100000000000000000000000000000000000000000000000000000000600052604160045260246000fd5b7f4e487b7100000000000000000000000000000000000000000000000000000000600052603260045260246000fd5b7f4e487b7100000000000000000000000000000000000000000000000000000000600052603160045260246000fdfea2646970667358221220ca0299f1b8435582a0016f48d2cd9673be6710dba8cad2284e9ff58dc76d64bd64736f6c634300081c0033",
  "linkReferences": {},
  "deployedLinkReferences": {}
}