{
  "_format": "hh-sol-artifact-1",
  "contractName": "IfElse",
  "sourceName": "contracts/009If_Else.sol",
  "abi": [
    {
      "inputs": [
        {
          "internalType": "uint256",
          "name": "x",
          "type": "uint256"
        }
      ],
      "name": "foo",
      "outputs": [
        {
          "internalType": "uint256",
          "name": "",
          "type": "uint256"
        }
      ],
      "stateMutability": "pure",
      "type": "function"
    },
    {
      "inputs": [
        {
          "internalType": "uint256",
          "name": "_x",
          "type": "uint256"
        }
      ],
      "name": "ternaly",
      "outputs": [
        {
          "internalType": "uint256",
          "name": "",
          "type": "uint256"
        }
      ],
      "stateMutability": "pure",
      "type": "function"
    }
  ],
  "bytecode": "0x6080604052348015600f57600080fd5b506101b18061001f6000396000f3fe608060405234801561001057600080fd5b50600436106100365760003560e01c8063291ed3ec1461003b5780632fbebd381461006b575b600080fd5b61005560048036038101906100509190610124565b61009b565b6040516100629190610160565b60405180910390f35b61008560048036038101906100809190610124565b6100b9565b6040516100929190610160565b60405180910390f35b6000600a82106100ac5760026100af565b60015b60ff169050919050565b6000600a8210156100cd57600090506100e4565b60148210156100df57600190506100e4565b600290505b919050565b600080fd5b6000819050919050565b610101816100ee565b811461010c57600080fd5b50565b60008135905061011e816100f8565b92915050565b60006020828403121561013a576101396100e9565b5b60006101488482850161010f565b91505092915050565b61015a816100ee565b82525050565b60006020820190506101756000830184610151565b9291505056fea26469706673582212200ac03612c0db7f9a81a71ce1ba13c225e1f01f057c47adced0ddbef8bd9f20c864736f6c634300081c0033",
  "linkReferences": {},
  "deployedLinkReferences": {}
}