{
  "_format": "hh-sol-artifact-1",
  "contractName": "EtherUnits",
  "sourceName": "contracts/008EtherAndWei.sol",
  "abi": [
    {
      "inputs": [],
      "name": "isOneEther",
      "outputs": [
        {
          "internalType": "bool",
          "name": "",
          "type": "bool"
        }
      ],
      "stateMutability": "view",
      "type": "function"
    },
    {
      "inputs": [],
      "name": "isOneWei",
      "outputs": [
        {
          "internalType": "bool",
          "name": "",
          "type": "bool"
        }
      ],
      "stateMutability": "view",
      "type": "function"
    },
    {
      "inputs": [],
      "name": "oneEther",
      "outputs": [
        {
          "internalType": "uint256",
          "name": "",
          "type": "uint256"
        }
      ],
      "stateMutability": "view",
      "type": "function"
    },
    {
      "inputs": [],
      "name": "oneWei",
      "outputs": [
        {
          "internalType": "uint256",
          "name": "",
          "type": "uint256"
        }
      ],
      "stateMutability": "view",
      "type": "function"
    }
  ],
  "bytecode": "0x6080604052600160005560018014600160006101000a81548160ff021916908315150217905550670de0b6b3a7640000600255670de0b6b3a76400008014600360006101000a81548160ff021916908315150217905550348015606157600080fd5b5061019b806100716000396000f3fe608060405234801561001057600080fd5b506004361061004c5760003560e01c806328dc556f146100515780634fb2e0be1461006f578063cf0f5d291461008d578063d297a89f146100ab575b600080fd5b6100596100c9565b6040516100669190610116565b60405180910390f35b6100776100dc565b604051610084919061014a565b60405180910390f35b6100956100e2565b6040516100a29190610116565b60405180910390f35b6100b36100f5565b6040516100c0919061014a565b60405180910390f35b600160009054906101000a900460ff1681565b60005481565b600360009054906101000a900460ff1681565b60025481565b60008115159050919050565b610110816100fb565b82525050565b600060208201905061012b6000830184610107565b92915050565b6000819050919050565b61014481610131565b82525050565b600060208201905061015f600083018461013b565b9291505056fea2646970667358221220ae70a8e9f0da52946dab00d2d637a002e6c841fa9835f0a46bf4a913d4e3128964736f6c634300081c0033",
  "linkReferences": {},
  "deployedLinkReferences": {}
}