{
  "_format": "hh-sol-artifact-1",
  "contractName": "removeArrary",
  "sourceName": "contracts/014RemoveArray.sol",
  "abi": [
    {
      "inputs": [
        {
          "internalType": "uint256",
          "name": "",
          "type": "uint256"
        }
      ],
      "name": "Arr",
      "outputs": [
        {
          "internalType": "uint256",
          "name": "",
          "type": "uint256"
        }
      ],
      "stateMutability": "view",
      "type": "function"
    },
    {
      "inputs": [
        {
          "internalType": "uint256",
          "name": "_index",
          "type": "uint256"
        }
      ],
      "name": "Remove",
      "outputs": [],
      "stateMutability": "nonpayable",
      "type": "function"
    },
    {
      "inputs": [],
      "name": "get",
      "outputs": [
        {
          "internalType": "uint256[]",
          "name": "",
          "type": "uint256[]"
        }
      ],
      "stateMutability": "view",
      "type": "function"
    }
  ],
  "bytecode": "0x60806040526040518060c00160405280600160ff168152602001600260ff168152602001600360ff168152602001600460ff168152602001600560ff168152602001600660ff16815250600090600660579291906068565b50348015606357600080fd5b5060d0565b82805482825590600052602060002090810192821560a6579160200282015b8281111560a5578251829060ff169055916020019190600101906087565b5b50905060b1919060b5565b5090565b5b8082111560cc57600081600090555060010160b6565b5090565b610558806100df6000396000f3fe608060405234801561001057600080fd5b50600436106100415760003560e01c8063476e4aa4146100465780636d4ce63c146100625780638c0bdb0014610080575b600080fd5b610060600480360381019061005b9190610253565b6100b0565b005b61006a61019c565b604051610077919061033e565b60405180910390f35b61009a60048036038101906100959190610253565b6101f4565b6040516100a7919061036f565b60405180910390f35b60008054905081106100f7576040517f08c379a00000000000000000000000000000000000000000000000000000000081526004016100ee9061040d565b60405180910390fd5b60008190505b600160008054905061010f919061045c565b8110156101705760006001826101259190610490565b81548110610136576101356104c4565b5b906000526020600020015460008281548110610155576101546104c4565b5b906000526020600020018190555080806001019150506100fd565b506000805480610183576101826104f3565b5b6001900381819060005260206000200160009055905550565b606060008054806020026020016040519081016040528092919081815260200182805480156101ea57602002820191906000526020600020905b8154815260200190600101908083116101d6575b5050505050905090565b6000818154811061020457600080fd5b906000526020600020016000915090505481565b600080fd5b6000819050919050565b6102308161021d565b811461023b57600080fd5b50565b60008135905061024d81610227565b92915050565b60006020828403121561026957610268610218565b5b60006102778482850161023e565b91505092915050565b600081519050919050565b600082825260208201905092915050565b6000819050602082019050919050565b6102b58161021d565b82525050565b60006102c783836102ac565b60208301905092915050565b6000602082019050919050565b60006102eb82610280565b6102f5818561028b565b93506103008361029c565b8060005b8381101561033157815161031888826102bb565b9750610323836102d3565b925050600181019050610304565b5085935050505092915050565b6000602082019050818103600083015261035881846102e0565b905092915050565b6103698161021d565b82525050565b60006020820190506103846000830184610360565b92915050565b600082825260208201905092915050565b7f74686520696e646578206973206c656e676572207468616e20746865206c656e60008201527f677468206f662041727261790000000000000000000000000000000000000000602082015250565b60006103f7602c8361038a565b91506104028261039b565b604082019050919050565b60006020820190508181036000830152610426816103ea565b9050919050565b7f4e487b7100000000000000000000000000000000000000000000000000000000600052601160045260246000fd5b60006104678261021d565b91506104728361021d565b925082820390508181111561048a5761048961042d565b5b92915050565b600061049b8261021d565b91506104a68361021d565b92508282019050808211156104be576104bd61042d565b5b92915050565b7f4e487b7100000000000000000000000000000000000000000000000000000000600052603260045260246000fd5b7f4e487b7100000000000000000000000000000000000000000000000000000000600052603160045260246000fdfea26469706673582212206c091ac9d93ded7c469eeb7a2f7fd7a8f89c5262296b97ee769d6555ddd0629364736f6c634300081c0033",
  "linkReferences": {},
  "deployedLinkReferences": {}
}